{
  "_format": "hh-sol-artifact-1",
  "contractName": "NFTer",
  "sourceName": "contracts/NFTer.sol",
  "abi": [
    {
      "anonymous": false,
      "inputs": [
        {
          "indexed": false,
          "internalType": "address",
          "name": "contractAddress",
          "type": "address"
        },
        {
          "indexed": false,
          "internalType": "address",
          "name": "from",
          "type": "address"
        },
        {
          "indexed": false,
          "internalType": "uint256",
          "name": "tokenId",
          "type": "uint256"
        },
        {
          "indexed": false,
          "internalType": "address",
          "name": "escrow",
          "type": "address"
        }
      ],
      "name": "EscrowReceivedERC721NFT",
      "type": "event"
    },
    {
      "anonymous": false,
      "inputs": [
        {
          "indexed": true,
          "internalType": "address",
          "name": "previousOwner",
          "type": "address"
        },
        {
          "indexed": true,
          "internalType": "address",
          "name": "newOwner",
          "type": "address"
        }
      ],
      "name": "OwnershipTransferred",
      "type": "event"
    },
    {
      "anonymous": false,
      "inputs": [
        {
          "indexed": false,
          "internalType": "address",
          "name": "renter",
          "type": "address"
        },
        {
          "indexed": false,
          "internalType": "address",
          "name": "owner",
          "type": "address"
        },
        {
          "indexed": false,
          "internalType": "uint256",
          "name": "amount",
          "type": "uint256"
        },
        {
          "indexed": false,
          "internalType": "address",
          "name": "escrow",
          "type": "address"
        }
      ],
      "name": "PayedETH",
      "type": "event"
    },
    {
      "anonymous": false,
      "inputs": [
        {
          "indexed": false,
          "internalType": "address",
          "name": "from",
          "type": "address"
        },
        {
          "indexed": false,
          "internalType": "uint256",
          "name": "amount",
          "type": "uint256"
        },
        {
          "indexed": false,
          "internalType": "address",
          "name": "escrow",
          "type": "address"
        }
      ],
      "name": "ReceivedETH",
      "type": "event"
    },
    {
      "anonymous": false,
      "inputs": [
        {
          "indexed": false,
          "internalType": "address",
          "name": "renter",
          "type": "address"
        },
        {
          "indexed": false,
          "internalType": "address",
          "name": "owner",
          "type": "address"
        },
        {
          "indexed": false,
          "internalType": "uint256",
          "name": "amount",
          "type": "uint256"
        },
        {
          "indexed": false,
          "internalType": "address",
          "name": "escrow",
          "type": "address"
        }
      ],
      "name": "RefundedETH",
      "type": "event"
    },
    {
      "anonymous": false,
      "inputs": [
        {
          "indexed": false,
          "internalType": "address",
          "name": "contractAddress",
          "type": "address"
        },
        {
          "indexed": false,
          "internalType": "address",
          "name": "to",
          "type": "address"
        },
        {
          "indexed": false,
          "internalType": "uint256",
          "name": "tokenId",
          "type": "uint256"
        }
      ],
      "name": "ReturnedERC721NFT",
      "type": "event"
    },
    {
      "stateMutability": "payable",
      "type": "fallback"
    },
    {
      "inputs": [
        {
          "internalType": "address",
          "name": "renter",
          "type": "address"
        },
        {
          "internalType": "address",
          "name": "owner",
          "type": "address"
        },
        {
          "internalType": "uint256",
          "name": "amount",
          "type": "uint256"
        }
      ],
      "name": "childPayedETH",
      "outputs": [],
      "stateMutability": "nonpayable",
      "type": "function"
    },
    {
      "inputs": [
        {
          "internalType": "address",
          "name": "contractAddress",
          "type": "address"
        },
        {
          "internalType": "address",
          "name": "from",
          "type": "address"
        },
        {
          "internalType": "uint256",
          "name": "tokenId",
          "type": "uint256"
        }
      ],
      "name": "childReceivedERC721NFT",
      "outputs": [],
      "stateMutability": "nonpayable",
      "type": "function"
    },
    {
      "inputs": [
        {
          "internalType": "address",
          "name": "from",
          "type": "address"
        },
        {
          "internalType": "uint256",
          "name": "amount",
          "type": "uint256"
        }
      ],
      "name": "childReceivedETH",
      "outputs": [],
      "stateMutability": "nonpayable",
      "type": "function"
    },
    {
      "inputs": [
        {
          "internalType": "address",
          "name": "renter",
          "type": "address"
        },
        {
          "internalType": "address",
          "name": "owner",
          "type": "address"
        },
        {
          "internalType": "uint256",
          "name": "amount",
          "type": "uint256"
        }
      ],
      "name": "childRefundedETH",
      "outputs": [],
      "stateMutability": "nonpayable",
      "type": "function"
    },
    {
      "inputs": [
        {
          "internalType": "address",
          "name": "contractAddress",
          "type": "address"
        },
        {
          "internalType": "address",
          "name": "to",
          "type": "address"
        },
        {
          "internalType": "uint256",
          "name": "tokenId",
          "type": "uint256"
        }
      ],
      "name": "childSelfDestructed",
      "outputs": [],
      "stateMutability": "nonpayable",
      "type": "function"
    },
    {
      "inputs": [],
      "name": "commission_amount",
      "outputs": [
        {
          "internalType": "uint256",
          "name": "",
          "type": "uint256"
        }
      ],
      "stateMutability": "view",
      "type": "function"
    },
    {
      "inputs": [
        {
          "internalType": "address",
          "name": "contractAddress",
          "type": "address"
        },
        {
          "internalType": "uint256",
          "name": "tokenId",
          "type": "uint256"
        }
      ],
      "name": "getEscrowAddress",
      "outputs": [
        {
          "internalType": "address",
          "name": "",
          "type": "address"
        }
      ],
      "stateMutability": "view",
      "type": "function"
    },
    {
      "inputs": [
        {
          "internalType": "address",
          "name": "escrow",
          "type": "address"
        }
      ],
      "name": "getNFTDetails",
      "outputs": [
        {
          "internalType": "address",
          "name": "",
          "type": "address"
        },
        {
          "internalType": "uint256",
          "name": "",
          "type": "uint256"
        }
      ],
      "stateMutability": "view",
      "type": "function"
    },
    {
      "inputs": [],
      "name": "getTime",
      "outputs": [
        {
          "internalType": "uint256",
          "name": "",
          "type": "uint256"
        }
      ],
      "stateMutability": "view",
      "type": "function"
    },
    {
      "inputs": [
        {
          "internalType": "address",
          "name": "operator",
          "type": "address"
        },
        {
          "internalType": "address",
          "name": "from",
          "type": "address"
        },
        {
          "internalType": "uint256",
          "name": "tokenId",
          "type": "uint256"
        },
        {
          "internalType": "bytes",
          "name": "data",
          "type": "bytes"
        }
      ],
      "name": "onERC721Received",
      "outputs": [
        {
          "internalType": "bytes4",
          "name": "",
          "type": "bytes4"
        }
      ],
      "stateMutability": "nonpayable",
      "type": "function"
    },
    {
      "inputs": [],
      "name": "owner",
      "outputs": [
        {
          "internalType": "address",
          "name": "",
          "type": "address"
        }
      ],
      "stateMutability": "view",
      "type": "function"
    },
    {
      "inputs": [
        {
          "internalType": "address",
          "name": "contractAddress",
          "type": "address"
        },
        {
          "internalType": "uint256",
          "name": "tokenId",
          "type": "uint256"
        },
        {
          "internalType": "address",
          "name": "_to",
          "type": "address"
        }
      ],
      "name": "payOwner",
      "outputs": [
        {
          "internalType": "bool",
          "name": "",
          "type": "bool"
        }
      ],
      "stateMutability": "nonpayable",
      "type": "function"
    },
    {
      "inputs": [
        {
          "internalType": "address",
          "name": "contractAddress",
          "type": "address"
        },
        {
          "internalType": "uint256",
          "name": "tokenId",
          "type": "uint256"
        },
        {
          "internalType": "address payable",
          "name": "_to",
          "type": "address"
        }
      ],
      "name": "refundRenter",
      "outputs": [],
      "stateMutability": "nonpayable",
      "type": "function"
    },
    {
      "inputs": [],
      "name": "renounceOwnership",
      "outputs": [],
      "stateMutability": "nonpayable",
      "type": "function"
    },
    {
      "inputs": [
        {
          "internalType": "address",
          "name": "contractAddress",
          "type": "address"
        },
        {
          "internalType": "uint256",
          "name": "tokenId",
          "type": "uint256"
        },
        {
          "internalType": "address",
          "name": "renterAddress",
          "type": "address"
        },
        {
          "internalType": "uint64",
          "name": "expires",
          "type": "uint64"
        }
      ],
      "name": "rentNFT",
      "outputs": [],
      "stateMutability": "nonpayable",
      "type": "function"
    },
    {
      "inputs": [
        {
          "internalType": "address",
          "name": "contractAddress",
          "type": "address"
        },
        {
          "internalType": "uint256",
          "name": "tokenId",
          "type": "uint256"
        }
      ],
      "name": "returnNFT",
      "outputs": [
        {
          "internalType": "bool",
          "name": "",
          "type": "bool"
        }
      ],
      "stateMutability": "nonpayable",
      "type": "function"
    },
    {
      "inputs": [
        {
          "internalType": "address",
          "name": "newOwner",
          "type": "address"
        }
      ],
      "name": "transferOwnership",
      "outputs": [],
      "stateMutability": "nonpayable",
      "type": "function"
    },
    {
      "stateMutability": "payable",
      "type": "receive"
    }
  ],
  "bytecode": "0x6080604052600260015534801561001557600080fd5b5061003261002761003760201b60201c565b61003f60201b60201c565b610103565b600033905090565b60008060009054906101000a900473ffffffffffffffffffffffffffffffffffffffff169050816000806101000a81548173ffffffffffffffffffffffffffffffffffffffff021916908373ffffffffffffffffffffffffffffffffffffffff1602179055508173ffffffffffffffffffffffffffffffffffffffff168173ffffffffffffffffffffffffffffffffffffffff167f8be0079c531659141344cd1fd0a4f28419497f9722a3daafe3b4186f6b6457e060405160405180910390a35050565b613d4f80620001136000396000f3fe6080604052600436106200011b5760003560e01c806390ef716f11620000a3578063bfe23d42116200006d578063bfe23d421462000382578063c881083914620003b0578063ccb568ec14620003de578063dc48b34f1462000422578063f2fde38b14620004665762000123565b806390ef716f14620002ca578063974e421614620002f85780639b770bf91462000326578063a335607014620003545762000123565b8063715018a611620000e5578063715018a6146200020c5780637be9154a14620002265780638da5cb5b14620002565780638ff92efe14620002865762000123565b8063150b7a021462000125578063229e3e451462000169578063557ed1ba14620001975780636cb8289814620001c75762000123565b366200012357005b005b3480156200013257600080fd5b506200015160048036038101906200014b91906200192e565b62000494565b60405162000160919062001a01565b60405180910390f35b3480156200017657600080fd5b506200019560048036038101906200018f919062001a1e565b620004b6565b005b348015620001a457600080fd5b50620001af62000590565b604051620001be919062001a8b565b60405180910390f35b348015620001d457600080fd5b50620001f36004803603810190620001ed919062001aa8565b62000598565b6040516200020392919062001aeb565b60405180910390f35b3480156200021957600080fd5b50620002246200064a565b005b3480156200023357600080fd5b506200023e62000662565b6040516200024d919062001a8b565b60405180910390f35b3480156200026357600080fd5b506200026e62000668565b6040516200027d919062001b18565b60405180910390f35b3480156200029357600080fd5b50620002b26004803603810190620002ac919062001b35565b62000691565b604051620002c1919062001bae565b60405180910390f35b348015620002d757600080fd5b50620002f66004803603810190620002f0919062001a1e565b6200087f565b005b3480156200030557600080fd5b506200032460048036038101906200031e919062001a1e565b62000959565b005b3480156200033357600080fd5b506200035260048036038101906200034c919062001a1e565b62000b8b565b005b3480156200036157600080fd5b506200038060048036038101906200037a919062001c10565b62000c65565b005b3480156200038f57600080fd5b50620003ae6004803603810190620003a8919062001cb1565b62000e3b565b005b348015620003bd57600080fd5b50620003dc6004803603810190620003d6919062001d23565b62001014565b005b348015620003eb57600080fd5b506200040a600480360381019062000404919062001d23565b620010eb565b60405162000419919062001bae565b60405180910390f35b3480156200042f57600080fd5b506200044e600480360381019062000448919062001d23565b620012cb565b6040516200045d919062001b18565b60405180910390f35b3480156200047357600080fd5b506200049260048036038101906200048c919062001aa8565b62001346565b005b6000620004a3338686620013d0565b63150b7a0260e01b905095945050505050565b60011515600460003373ffffffffffffffffffffffffffffffffffffffff1673ffffffffffffffffffffffffffffffffffffffff16815260200190815260200160002060009054906101000a900460ff161515146200054c576040517f08c379a0000000000000000000000000000000000000000000000000000000008152600401620005439062001dcb565b60405180910390fd5b7f3119237d307e3d198d839976c10b91e63d2b66e038f08f4c13293e7c83440e6d8383833360405162000583949392919062001ded565b60405180910390a1505050565b600042905090565b600080600360008473ffffffffffffffffffffffffffffffffffffffff1673ffffffffffffffffffffffffffffffffffffffff16815260200190815260200160002060010160009054906101000a900473ffffffffffffffffffffffffffffffffffffffff16600360008573ffffffffffffffffffffffffffffffffffffffff1673ffffffffffffffffffffffffffffffffffffffff1681526020019081526020016000206002015491509150915091565b62000654620016b7565b6200066060006200173c565b565b60015481565b60008060009054906101000a900473ffffffffffffffffffffffffffffffffffffffff16905090565b60006200069d620016b7565b600073ffffffffffffffffffffffffffffffffffffffff16600260008673ffffffffffffffffffffffffffffffffffffffff1673ffffffffffffffffffffffffffffffffffffffff168152602001908152602001600020600085815260200190815260200160002060009054906101000a900473ffffffffffffffffffffffffffffffffffffffff1673ffffffffffffffffffffffffffffffffffffffff16036200077f576040517f08c379a0000000000000000000000000000000000000000000000000000000008152600401620007769062001e8a565b60405180910390fd5b6000600260008673ffffffffffffffffffffffffffffffffffffffff1673ffffffffffffffffffffffffffffffffffffffff168152602001908152602001600020600085815260200190815260200160002060009054906101000a900473ffffffffffffffffffffffffffffffffffffffff1690508073ffffffffffffffffffffffffffffffffffffffff1663401d4c95846040518263ffffffff1660e01b81526004016200082f919062001b18565b6020604051808303816000875af11580156200084f573d6000803e3d6000fd5b505050506040513d601f19601f8201168201806040525081019062000875919062001edd565b9150509392505050565b60011515600460003373ffffffffffffffffffffffffffffffffffffffff1673ffffffffffffffffffffffffffffffffffffffff16815260200190815260200160002060009054906101000a900460ff1615151462000915576040517f08c379a00000000000000000000000000000000000000000000000000000000081526004016200090c9062001dcb565b60405180910390fd5b7f6e80ca4e1e35e606e1dbbaa62af2e240b9366d0f5efbc0d0285fedd3e0acb3d3838383336040516200094c949392919062001ded565b60405180910390a1505050565b60011515600460003373ffffffffffffffffffffffffffffffffffffffff1673ffffffffffffffffffffffffffffffffffffffff16815260200190815260200160002060009054906101000a900460ff16151514620009ef576040517f08c379a0000000000000000000000000000000000000000000000000000000008152600401620009e69062001dcb565b60405180910390fd5b600260008473ffffffffffffffffffffffffffffffffffffffff1673ffffffffffffffffffffffffffffffffffffffff168152602001908152602001600020600082815260200190815260200160002060006101000a81549073ffffffffffffffffffffffffffffffffffffffff0219169055600360003373ffffffffffffffffffffffffffffffffffffffff1673ffffffffffffffffffffffffffffffffffffffff168152602001908152602001600020600080820160006101000a81549073ffffffffffffffffffffffffffffffffffffffff02191690556001820160006101000a81549073ffffffffffffffffffffffffffffffffffffffff021916905560028201600090555050600460003373ffffffffffffffffffffffffffffffffffffffff1673ffffffffffffffffffffffffffffffffffffffff16815260200190815260200160002060006101000a81549060ff02191690557f0b9a8b666c6ab6a4926cac449787c0cb4f230f87c023bc1b0f7ff5c38a4d540e83838360405162000b7e9392919062001f0f565b60405180910390a1505050565b60011515600460003373ffffffffffffffffffffffffffffffffffffffff1673ffffffffffffffffffffffffffffffffffffffff16815260200190815260200160002060009054906101000a900460ff1615151462000c21576040517f08c379a000000000000000000000000000000000000000000000000000000000815260040162000c189062001dcb565b60405180910390fd5b7f6c5f199356ed8a506a2c5fdd03b3d8576bb3dca2426f2eb3c4c5f0027754ea668383833360405162000c58949392919062001ded565b60405180910390a1505050565b62000c6f620016b7565b600073ffffffffffffffffffffffffffffffffffffffff16600260008573ffffffffffffffffffffffffffffffffffffffff1673ffffffffffffffffffffffffffffffffffffffff168152602001908152602001600020600084815260200190815260200160002060009054906101000a900473ffffffffffffffffffffffffffffffffffffffff1673ffffffffffffffffffffffffffffffffffffffff160362000d51576040517f08c379a000000000000000000000000000000000000000000000000000000000815260040162000d489062001e8a565b60405180910390fd5b6000600260008573ffffffffffffffffffffffffffffffffffffffff1673ffffffffffffffffffffffffffffffffffffffff168152602001908152602001600020600084815260200190815260200160002060009054906101000a900473ffffffffffffffffffffffffffffffffffffffff1690508073ffffffffffffffffffffffffffffffffffffffff1663e323e2be836040518263ffffffff1660e01b815260040162000e01919062001f5d565b600060405180830381600087803b15801562000e1c57600080fd5b505af115801562000e31573d6000803e3d6000fd5b5050505050505050565b62000e45620016b7565b600073ffffffffffffffffffffffffffffffffffffffff16600260008673ffffffffffffffffffffffffffffffffffffffff1673ffffffffffffffffffffffffffffffffffffffff168152602001908152602001600020600085815260200190815260200160002060009054906101000a900473ffffffffffffffffffffffffffffffffffffffff1673ffffffffffffffffffffffffffffffffffffffff160362000f27576040517f08c379a000000000000000000000000000000000000000000000000000000000815260040162000f1e9062001e8a565b60405180910390fd5b6000600260008673ffffffffffffffffffffffffffffffffffffffff1673ffffffffffffffffffffffffffffffffffffffff168152602001908152602001600020600085815260200190815260200160002060009054906101000a900473ffffffffffffffffffffffffffffffffffffffff1690508073ffffffffffffffffffffffffffffffffffffffff1663f128b9dc84846040518363ffffffff1660e01b815260040162000fd992919062001f8b565b600060405180830381600087803b15801562000ff457600080fd5b505af115801562001009573d6000803e3d6000fd5b505050505050505050565b60011515600460003373ffffffffffffffffffffffffffffffffffffffff1673ffffffffffffffffffffffffffffffffffffffff16815260200190815260200160002060009054906101000a900460ff16151514620010aa576040517f08c379a0000000000000000000000000000000000000000000000000000000008152600401620010a19062001dcb565b60405180910390fd5b7ff96c195858103f756dc58c4f6f6f5854144ae1ac0d81e27a01caca389ce67998828233604051620010df9392919062001fb8565b60405180910390a15050565b6000620010f7620016b7565b600073ffffffffffffffffffffffffffffffffffffffff16600260008573ffffffffffffffffffffffffffffffffffffffff1673ffffffffffffffffffffffffffffffffffffffff168152602001908152602001600020600084815260200190815260200160002060009054906101000a900473ffffffffffffffffffffffffffffffffffffffff1673ffffffffffffffffffffffffffffffffffffffff1603620011d9576040517f08c379a0000000000000000000000000000000000000000000000000000000008152600401620011d09062001e8a565b60405180910390fd5b6000600260008573ffffffffffffffffffffffffffffffffffffffff1673ffffffffffffffffffffffffffffffffffffffff168152602001908152602001600020600084815260200190815260200160002060009054906101000a900473ffffffffffffffffffffffffffffffffffffffff1690508073ffffffffffffffffffffffffffffffffffffffff1663c6d62d906040518163ffffffff1660e01b81526004016020604051808303816000875af11580156200129c573d6000803e3d6000fd5b505050506040513d601f19601f82011682018060405250810190620012c2919062001edd565b91505092915050565b6000600260008473ffffffffffffffffffffffffffffffffffffffff1673ffffffffffffffffffffffffffffffffffffffff168152602001908152602001600020600083815260200190815260200160002060009054906101000a900473ffffffffffffffffffffffffffffffffffffffff16905092915050565b62001350620016b7565b600073ffffffffffffffffffffffffffffffffffffffff168173ffffffffffffffffffffffffffffffffffffffff1603620013c2576040517f08c379a0000000000000000000000000000000000000000000000000000000008152600401620013b9906200206b565b60405180910390fd5b620013cd816200173c565b50565b600030604051620013e19062001808565b620013ed9190620020f8565b604051809103906000f0801580156200140a573d6000803e3d6000fd5b50905080600260008673ffffffffffffffffffffffffffffffffffffffff1673ffffffffffffffffffffffffffffffffffffffff168152602001908152602001600020600084815260200190815260200160002060006101000a81548173ffffffffffffffffffffffffffffffffffffffff021916908373ffffffffffffffffffffffffffffffffffffffff16021790555060405180606001604052808473ffffffffffffffffffffffffffffffffffffffff1681526020018573ffffffffffffffffffffffffffffffffffffffff16815260200183815250600360008373ffffffffffffffffffffffffffffffffffffffff1673ffffffffffffffffffffffffffffffffffffffff16815260200190815260200160002060008201518160000160006101000a81548173ffffffffffffffffffffffffffffffffffffffff021916908373ffffffffffffffffffffffffffffffffffffffff16021790555060208201518160010160006101000a81548173ffffffffffffffffffffffffffffffffffffffff021916908373ffffffffffffffffffffffffffffffffffffffff160217905550604082015181600201559050506001600460008373ffffffffffffffffffffffffffffffffffffffff1673ffffffffffffffffffffffffffffffffffffffff16815260200190815260200160002060006101000a81548160ff0219169083151502179055506000836040516020016200162a919062001b18565b60405160208183030381529060405290508473ffffffffffffffffffffffffffffffffffffffff1663b88d4fde308486856040518563ffffffff1660e01b81526004016200167c9493929190620021af565b600060405180830381600087803b1580156200169757600080fd5b505af1158015620016ac573d6000803e3d6000fd5b505050505050505050565b620016c162001800565b73ffffffffffffffffffffffffffffffffffffffff16620016e162000668565b73ffffffffffffffffffffffffffffffffffffffff16146200173a576040517f08c379a0000000000000000000000000000000000000000000000000000000008152600401620017319062002253565b60405180910390fd5b565b60008060009054906101000a900473ffffffffffffffffffffffffffffffffffffffff169050816000806101000a81548173ffffffffffffffffffffffffffffffffffffffff021916908373ffffffffffffffffffffffffffffffffffffffff1602179055508173ffffffffffffffffffffffffffffffffffffffff168173ffffffffffffffffffffffffffffffffffffffff167f8be0079c531659141344cd1fd0a4f28419497f9722a3daafe3b4186f6b6457e060405160405180910390a35050565b600033905090565b611aa4806200227683390190565b600080fd5b600080fd5b600073ffffffffffffffffffffffffffffffffffffffff82169050919050565b60006200184d8262001820565b9050919050565b6200185f8162001840565b81146200186b57600080fd5b50565b6000813590506200187f8162001854565b92915050565b6000819050919050565b6200189a8162001885565b8114620018a657600080fd5b50565b600081359050620018ba816200188f565b92915050565b600080fd5b600080fd5b600080fd5b60008083601f840112620018e857620018e7620018c0565b5b8235905067ffffffffffffffff811115620019085762001907620018c5565b5b602083019150836001820283011115620019275762001926620018ca565b5b9250929050565b6000806000806000608086880312156200194d576200194c62001816565b5b60006200195d888289016200186e565b955050602062001970888289016200186e565b94505060406200198388828901620018a9565b935050606086013567ffffffffffffffff811115620019a757620019a66200181b565b5b620019b588828901620018cf565b92509250509295509295909350565b60007fffffffff0000000000000000000000000000000000000000000000000000000082169050919050565b620019fb81620019c4565b82525050565b600060208201905062001a186000830184620019f0565b92915050565b60008060006060848603121562001a3a5762001a3962001816565b5b600062001a4a868287016200186e565b935050602062001a5d868287016200186e565b925050604062001a7086828701620018a9565b9150509250925092565b62001a858162001885565b82525050565b600060208201905062001aa2600083018462001a7a565b92915050565b60006020828403121562001ac15762001ac062001816565b5b600062001ad1848285016200186e565b91505092915050565b62001ae58162001840565b82525050565b600060408201905062001b02600083018562001ada565b62001b11602083018462001a7a565b9392505050565b600060208201905062001b2f600083018462001ada565b92915050565b60008060006060848603121562001b515762001b5062001816565b5b600062001b61868287016200186e565b935050602062001b7486828701620018a9565b925050604062001b87868287016200186e565b9150509250925092565b60008115159050919050565b62001ba88162001b91565b82525050565b600060208201905062001bc5600083018462001b9d565b92915050565b600062001bd88262001820565b9050919050565b62001bea8162001bcb565b811462001bf657600080fd5b50565b60008135905062001c0a8162001bdf565b92915050565b60008060006060848603121562001c2c5762001c2b62001816565b5b600062001c3c868287016200186e565b935050602062001c4f86828701620018a9565b925050604062001c628682870162001bf9565b9150509250925092565b600067ffffffffffffffff82169050919050565b62001c8b8162001c6c565b811462001c9757600080fd5b50565b60008135905062001cab8162001c80565b92915050565b6000806000806080858703121562001cce5762001ccd62001816565b5b600062001cde878288016200186e565b945050602062001cf187828801620018a9565b935050604062001d04878288016200186e565b925050606062001d178782880162001c9a565b91505092959194509250565b6000806040838503121562001d3d5762001d3c62001816565b5b600062001d4d858286016200186e565b925050602062001d6085828601620018a9565b9150509250929050565b600082825260208201905092915050565b7f4f776e61626c653a2063616c6c6572206973206e6f7420616e20657363726f77600082015250565b600062001db360208362001d6a565b915062001dc08262001d7b565b602082019050919050565b6000602082019050818103600083015262001de68162001da4565b9050919050565b600060808201905062001e04600083018762001ada565b62001e13602083018662001ada565b62001e22604083018562001a7a565b62001e31606083018462001ada565b95945050505050565b7f4572726f723a20457363726f7720646f65736e27742065786973740000000000600082015250565b600062001e72601b8362001d6a565b915062001e7f8262001e3a565b602082019050919050565b6000602082019050818103600083015262001ea58162001e63565b9050919050565b62001eb78162001b91565b811462001ec357600080fd5b50565b60008151905062001ed78162001eac565b92915050565b60006020828403121562001ef65762001ef562001816565b5b600062001f068482850162001ec6565b91505092915050565b600060608201905062001f26600083018662001ada565b62001f35602083018562001ada565b62001f44604083018462001a7a565b949350505050565b62001f578162001bcb565b82525050565b600060208201905062001f74600083018462001f4c565b92915050565b62001f858162001c6c565b82525050565b600060408201905062001fa2600083018562001ada565b62001fb1602083018462001f7a565b9392505050565b600060608201905062001fcf600083018662001ada565b62001fde602083018562001a7a565b62001fed604083018462001ada565b949350505050565b7f4f776e61626c653a206e6577206f776e657220697320746865207a65726f206160008201527f6464726573730000000000000000000000000000000000000000000000000000602082015250565b60006200205360268362001d6a565b9150620020608262001ff5565b604082019050919050565b60006020820190508181036000830152620020868162002044565b9050919050565b6000819050919050565b6000620020b8620020b2620020ac8462001820565b6200208d565b62001820565b9050919050565b6000620020cc8262002097565b9050919050565b6000620020e082620020bf565b9050919050565b620020f281620020d3565b82525050565b60006020820190506200210f6000830184620020e7565b92915050565b600081519050919050565b600082825260208201905092915050565b60005b838110156200215157808201518184015260208101905062002134565b60008484015250505050565b6000601f19601f8301169050919050565b60006200217b8262002115565b62002187818562002120565b93506200219981856020860162002131565b620021a4816200215d565b840191505092915050565b6000608082019050620021c6600083018762001ada565b620021d5602083018662001ada565b620021e4604083018562001a7a565b8181036060830152620021f881846200216e565b905095945050505050565b7f4f776e61626c653a2063616c6c6572206973206e6f7420746865206f776e6572600082015250565b60006200223b60208362001d6a565b9150620022488262002203565b602082019050919050565b600060208201905081810360008301526200226e816200222c565b905091905056fe60806040523480156200001157600080fd5b5060405162001aa438038062001aa48339818101604052810190620000379190620001e9565b620000576200004b6200009f60201b60201c565b620000a760201b60201c565b80600660006101000a81548173ffffffffffffffffffffffffffffffffffffffff021916908373ffffffffffffffffffffffffffffffffffffffff160217905550506200021b565b600033905090565b60008060009054906101000a900473ffffffffffffffffffffffffffffffffffffffff169050816000806101000a81548173ffffffffffffffffffffffffffffffffffffffff021916908373ffffffffffffffffffffffffffffffffffffffff1602179055508173ffffffffffffffffffffffffffffffffffffffff168173ffffffffffffffffffffffffffffffffffffffff167f8be0079c531659141344cd1fd0a4f28419497f9722a3daafe3b4186f6b6457e060405160405180910390a35050565b600080fd5b600073ffffffffffffffffffffffffffffffffffffffff82169050919050565b60006200019d8262000170565b9050919050565b6000620001b18262000190565b9050919050565b620001c381620001a4565b8114620001cf57600080fd5b50565b600081519050620001e381620001b8565b92915050565b6000602082840312156200020257620002016200016b565b5b60006200021284828501620001d2565b91505092915050565b611879806200022b6000396000f3fe60806040526004361061007f5760003560e01c8063c6d62d901161004e578063c6d62d9014610310578063e323e2be1461033b578063f128b9dc14610364578063f2fde38b1461038d5761016c565b8063150b7a0214610254578063401d4c9514610291578063715018a6146102ce5780638da5cb5b146102e55761016c565b3661016c57600034905080600560003373ffffffffffffffffffffffffffffffffffffffff1673ffffffffffffffffffffffffffffffffffffffff16815260200190815260200160002060008282546100d8919061100a565b92505081905550600660009054906101000a900473ffffffffffffffffffffffffffffffffffffffff1673ffffffffffffffffffffffffffffffffffffffff1663c881083933836040518363ffffffff1660e01b815260040161013c92919061108e565b600060405180830381600087803b15801561015657600080fd5b505af115801561016a573d6000803e3d6000fd5b005b600034905080600560003373ffffffffffffffffffffffffffffffffffffffff1673ffffffffffffffffffffffffffffffffffffffff16815260200190815260200160002060008282546101c0919061100a565b92505081905550600660009054906101000a900473ffffffffffffffffffffffffffffffffffffffff1673ffffffffffffffffffffffffffffffffffffffff1663c881083933836040518363ffffffff1660e01b815260040161022492919061108e565b600060405180830381600087803b15801561023e57600080fd5b505af1158015610252573d6000803e3d6000fd5b005b34801561026057600080fd5b5061027b6004803603810190610276919061117e565b6103b6565b6040516102889190611241565b60405180910390f35b34801561029d57600080fd5b506102b860048036038101906102b3919061125c565b610589565b6040516102c591906112a4565b60405180910390f35b3480156102da57600080fd5b506102e361080a565b005b3480156102f157600080fd5b506102fa61081e565b60405161030791906112bf565b60405180910390f35b34801561031c57600080fd5b50610325610847565b60405161033291906112a4565b60405180910390f35b34801561034757600080fd5b50610362600480360381019061035d9190611318565b610a2b565b005b34801561037057600080fd5b5061038b60048036038101906103869190611385565b610c53565b005b34801561039957600080fd5b506103b460048036038101906103af919061125c565b610d08565b005b60006103c061081e565b73ffffffffffffffffffffffffffffffffffffffff168673ffffffffffffffffffffffffffffffffffffffff1603610576576040518060600160405280848481019061040c9190611318565b73ffffffffffffffffffffffffffffffffffffffff1681526020013373ffffffffffffffffffffffffffffffffffffffff16815260200185815250600160008201518160000160006101000a81548173ffffffffffffffffffffffffffffffffffffffff021916908373ffffffffffffffffffffffffffffffffffffffff16021790555060208201518160010160006101000a81548173ffffffffffffffffffffffffffffffffffffffff021916908373ffffffffffffffffffffffffffffffffffffffff16021790555060408201518160020155905050600660009054906101000a900473ffffffffffffffffffffffffffffffffffffffff1673ffffffffffffffffffffffffffffffffffffffff166390ef716f3387876040518463ffffffff1660e01b8152600401610543939291906113c5565b600060405180830381600087803b15801561055d57600080fd5b505af1158015610571573d6000803e3d6000fd5b505050505b63150b7a0260e01b905095945050505050565b6000610593610d8b565b600061059d610e09565b90506004548111156107ff576000600560008573ffffffffffffffffffffffffffffffffffffffff1673ffffffffffffffffffffffffffffffffffffffff1681526020019081526020016000205490506000600560008673ffffffffffffffffffffffffffffffffffffffff1673ffffffffffffffffffffffffffffffffffffffff1681526020019081526020016000208190555060006064600660009054906101000a900473ffffffffffffffffffffffffffffffffffffffff1673ffffffffffffffffffffffffffffffffffffffff16637be9154a6040518163ffffffff1660e01b8152600401602060405180830381865afa1580156106a3573d6000803e3d6000fd5b505050506040513d601f19601f820116820180604052508101906106c79190611411565b836106d2919061143e565b6106dc91906114af565b9050600081836106ec91906114e0565b905061073c81600160000160009054906101000a900473ffffffffffffffffffffffffffffffffffffffff1673ffffffffffffffffffffffffffffffffffffffff16610e1190919063ffffffff16565b600660009054906101000a900473ffffffffffffffffffffffffffffffffffffffff1673ffffffffffffffffffffffffffffffffffffffff1663229e3e4587600160000160009054906101000a900473ffffffffffffffffffffffffffffffffffffffff16846040518463ffffffff1660e01b81526004016107c0939291906113c5565b600060405180830381600087803b1580156107da57600080fd5b505af11580156107ee573d6000803e3d6000fd5b505050506001945050505050610805565b60009150505b919050565b610812610d8b565b61081c6000610f05565b565b60008060009054906101000a900473ffffffffffffffffffffffffffffffffffffffff16905090565b6000610851610d8b565b600061085b610e09565b9050600454811115610a23576001800160009054906101000a900473ffffffffffffffffffffffffffffffffffffffff1673ffffffffffffffffffffffffffffffffffffffff166342842e0e30600160000160009054906101000a900473ffffffffffffffffffffffffffffffffffffffff166001600201546040518463ffffffff1660e01b81526004016108f2939291906113c5565b600060405180830381600087803b15801561090c57600080fd5b505af1158015610920573d6000803e3d6000fd5b50505050600660009054906101000a900473ffffffffffffffffffffffffffffffffffffffff1673ffffffffffffffffffffffffffffffffffffffff1663974e42166001800160009054906101000a900473ffffffffffffffffffffffffffffffffffffffff16600160000160009054906101000a900473ffffffffffffffffffffffffffffffffffffffff166001600201546040518463ffffffff1660e01b81526004016109d1939291906113c5565b600060405180830381600087803b1580156109eb57600080fd5b505af11580156109ff573d6000803e3d6000fd5b50505050610a0b61081e565b73ffffffffffffffffffffffffffffffffffffffff16ff5b600091505090565b610a33610d8b565b6000600560008373ffffffffffffffffffffffffffffffffffffffff1673ffffffffffffffffffffffffffffffffffffffff1681526020019081526020016000205490506000600560008473ffffffffffffffffffffffffffffffffffffffff1673ffffffffffffffffffffffffffffffffffffffff16815260200190815260200160002081905550610ae5818373ffffffffffffffffffffffffffffffffffffffff16610e1190919063ffffffff16565b600660009054906101000a900473ffffffffffffffffffffffffffffffffffffffff1673ffffffffffffffffffffffffffffffffffffffff16639b770bf983600160000160009054906101000a900473ffffffffffffffffffffffffffffffffffffffff16846040518463ffffffff1660e01b8152600401610b6993929190611573565b600060405180830381600087803b158015610b8357600080fd5b505af1158015610b97573d6000803e3d6000fd5b50505050610ba3610e09565b6004819055506001800160009054906101000a900473ffffffffffffffffffffffffffffffffffffffff1673ffffffffffffffffffffffffffffffffffffffff1663e030565e60016002015430603c600454610bff919061100a565b6040518463ffffffff1660e01b8152600401610c1d939291906115b9565b600060405180830381600087803b158015610c3757600080fd5b505af1158015610c4b573d6000803e3d6000fd5b505050505050565b610c5b610d8b565b8067ffffffffffffffff166004819055506001800160009054906101000a900473ffffffffffffffffffffffffffffffffffffffff1673ffffffffffffffffffffffffffffffffffffffff1663e030565e60016002015484846040518463ffffffff1660e01b8152600401610cd2939291906115b9565b600060405180830381600087803b158015610cec57600080fd5b505af1158015610d00573d6000803e3d6000fd5b505050505050565b610d10610d8b565b600073ffffffffffffffffffffffffffffffffffffffff168173ffffffffffffffffffffffffffffffffffffffff1603610d7f576040517f08c379a0000000000000000000000000000000000000000000000000000000008152600401610d7690611673565b60405180910390fd5b610d8881610f05565b50565b610d93610fc9565b73ffffffffffffffffffffffffffffffffffffffff16610db161081e565b73ffffffffffffffffffffffffffffffffffffffff1614610e07576040517f08c379a0000000000000000000000000000000000000000000000000000000008152600401610dfe906116df565b60405180910390fd5b565b600042905090565b80471015610e54576040517f08c379a0000000000000000000000000000000000000000000000000000000008152600401610e4b9061174b565b60405180910390fd5b60008273ffffffffffffffffffffffffffffffffffffffff1682604051610e7a9061179c565b60006040518083038185875af1925050503d8060008114610eb7576040519150601f19603f3d011682016040523d82523d6000602084013e610ebc565b606091505b5050905080610f00576040517f08c379a0000000000000000000000000000000000000000000000000000000008152600401610ef790611823565b60405180910390fd5b505050565b60008060009054906101000a900473ffffffffffffffffffffffffffffffffffffffff169050816000806101000a81548173ffffffffffffffffffffffffffffffffffffffff021916908373ffffffffffffffffffffffffffffffffffffffff1602179055508173ffffffffffffffffffffffffffffffffffffffff168173ffffffffffffffffffffffffffffffffffffffff167f8be0079c531659141344cd1fd0a4f28419497f9722a3daafe3b4186f6b6457e060405160405180910390a35050565b600033905090565b6000819050919050565b7f4e487b7100000000000000000000000000000000000000000000000000000000600052601160045260246000fd5b600061101582610fd1565b915061102083610fd1565b925082820190508082111561103857611037610fdb565b5b92915050565b600073ffffffffffffffffffffffffffffffffffffffff82169050919050565b60006110698261103e565b9050919050565b6110798161105e565b82525050565b61108881610fd1565b82525050565b60006040820190506110a36000830185611070565b6110b0602083018461107f565b9392505050565b600080fd5b600080fd5b6110ca8161105e565b81146110d557600080fd5b50565b6000813590506110e7816110c1565b92915050565b6110f681610fd1565b811461110157600080fd5b50565b600081359050611113816110ed565b92915050565b600080fd5b600080fd5b600080fd5b60008083601f84011261113e5761113d611119565b5b8235905067ffffffffffffffff81111561115b5761115a61111e565b5b60208301915083600182028301111561117757611176611123565b5b9250929050565b60008060008060006080868803121561119a576111996110b7565b5b60006111a8888289016110d8565b95505060206111b9888289016110d8565b94505060406111ca88828901611104565b935050606086013567ffffffffffffffff8111156111eb576111ea6110bc565b5b6111f788828901611128565b92509250509295509295909350565b60007fffffffff0000000000000000000000000000000000000000000000000000000082169050919050565b61123b81611206565b82525050565b60006020820190506112566000830184611232565b92915050565b600060208284031215611272576112716110b7565b5b6000611280848285016110d8565b91505092915050565b60008115159050919050565b61129e81611289565b82525050565b60006020820190506112b96000830184611295565b92915050565b60006020820190506112d46000830184611070565b92915050565b60006112e58261103e565b9050919050565b6112f5816112da565b811461130057600080fd5b50565b600081359050611312816112ec565b92915050565b60006020828403121561132e5761132d6110b7565b5b600061133c84828501611303565b91505092915050565b600067ffffffffffffffff82169050919050565b61136281611345565b811461136d57600080fd5b50565b60008135905061137f81611359565b92915050565b6000806040838503121561139c5761139b6110b7565b5b60006113aa858286016110d8565b92505060206113bb85828601611370565b9150509250929050565b60006060820190506113da6000830186611070565b6113e76020830185611070565b6113f4604083018461107f565b949350505050565b60008151905061140b816110ed565b92915050565b600060208284031215611427576114266110b7565b5b6000611435848285016113fc565b91505092915050565b600061144982610fd1565b915061145483610fd1565b925082820261146281610fd1565b9150828204841483151761147957611478610fdb565b5b5092915050565b7f4e487b7100000000000000000000000000000000000000000000000000000000600052601260045260246000fd5b60006114ba82610fd1565b91506114c583610fd1565b9250826114d5576114d4611480565b5b828204905092915050565b60006114eb82610fd1565b91506114f683610fd1565b925082820390508181111561150e5761150d610fdb565b5b92915050565b6000819050919050565b600061153961153461152f8461103e565b611514565b61103e565b9050919050565b600061154b8261151e565b9050919050565b600061155d82611540565b9050919050565b61156d81611552565b82525050565b60006060820190506115886000830186611564565b6115956020830185611070565b6115a2604083018461107f565b949350505050565b6115b381611345565b82525050565b60006060820190506115ce600083018661107f565b6115db6020830185611070565b6115e860408301846115aa565b949350505050565b600082825260208201905092915050565b7f4f776e61626c653a206e6577206f776e657220697320746865207a65726f206160008201527f6464726573730000000000000000000000000000000000000000000000000000602082015250565b600061165d6026836115f0565b915061166882611601565b604082019050919050565b6000602082019050818103600083015261168c81611650565b9050919050565b7f4f776e61626c653a2063616c6c6572206973206e6f7420746865206f776e6572600082015250565b60006116c96020836115f0565b91506116d482611693565b602082019050919050565b600060208201905081810360008301526116f8816116bc565b9050919050565b7f416464726573733a20696e73756666696369656e742062616c616e6365000000600082015250565b6000611735601d836115f0565b9150611740826116ff565b602082019050919050565b6000602082019050818103600083015261176481611728565b9050919050565b600081905092915050565b50565b600061178660008361176b565b915061179182611776565b600082019050919050565b60006117a782611779565b9150819050919050565b7f416464726573733a20756e61626c6520746f2073656e642076616c75652c207260008201527f6563697069656e74206d61792068617665207265766572746564000000000000602082015250565b600061180d603a836115f0565b9150611818826117b1565b604082019050919050565b6000602082019050818103600083015261183c81611800565b905091905056fea26469706673582212208529881622d965921ec74c23b7c93923db02f27dbc3d6e7997d63490bf2a260764736f6c63430008110033a2646970667358221220b8b4c360226e4625ea8f32342e5b736ef5db7e6152916e70e3f8aa3b36f1482664736f6c63430008110033",
  "linkReferences": {},
  "deployedLinkReferences": {}
}