{
  "_format": "hh-sol-artifact-1",
  "contractName": "NFTer",
  "sourceName": "contracts/NFTer.sol",
  "abi": [
    {
      "anonymous": false,
      "inputs": [
        {
          "indexed": true,
          "internalType": "address",
          "name": "previousOwner",
          "type": "address"
        },
        {
          "indexed": true,
          "internalType": "address",
          "name": "newOwner",
          "type": "address"
        }
      ],
      "name": "OwnershipTransferred",
      "type": "event"
    },
    {
      "anonymous": false,
      "inputs": [
        {
          "indexed": true,
          "internalType": "address",
          "name": "operator",
          "type": "address"
        },
        {
          "indexed": true,
          "internalType": "address",
          "name": "from",
          "type": "address"
        },
        {
          "indexed": false,
          "internalType": "uint256",
          "name": "tokenId",
          "type": "uint256"
        },
        {
          "indexed": false,
          "internalType": "bytes",
          "name": "data",
          "type": "bytes"
        }
      ],
      "name": "ReceivedERC721NFT",
      "type": "event"
    },
    {
      "anonymous": false,
      "inputs": [
        {
          "indexed": true,
          "internalType": "address",
          "name": "from",
          "type": "address"
        },
        {
          "indexed": false,
          "internalType": "uint256",
          "name": "amount",
          "type": "uint256"
        }
      ],
      "name": "ReceivedETH",
      "type": "event"
    },
    {
      "stateMutability": "payable",
      "type": "fallback"
    },
    {
      "inputs": [
        {
          "internalType": "address",
          "name": "operator",
          "type": "address"
        },
        {
          "internalType": "address",
          "name": "from",
          "type": "address"
        },
        {
          "internalType": "uint256",
          "name": "tokenId",
          "type": "uint256"
        },
        {
          "internalType": "bytes",
          "name": "data",
          "type": "bytes"
        }
      ],
      "name": "onERC721Received",
      "outputs": [
        {
          "internalType": "bytes4",
          "name": "",
          "type": "bytes4"
        }
      ],
      "stateMutability": "nonpayable",
      "type": "function"
    },
    {
      "inputs": [],
      "name": "owner",
      "outputs": [
        {
          "internalType": "address",
          "name": "",
          "type": "address"
        }
      ],
      "stateMutability": "view",
      "type": "function"
    },
    {
      "inputs": [
        {
          "internalType": "address payable",
          "name": "_to",
          "type": "address"
        },
        {
          "internalType": "uint256",
          "name": "_amount",
          "type": "uint256"
        }
      ],
      "name": "payOwner",
      "outputs": [],
      "stateMutability": "nonpayable",
      "type": "function"
    },
    {
      "inputs": [],
      "name": "renounceOwnership",
      "outputs": [],
      "stateMutability": "nonpayable",
      "type": "function"
    },
    {
      "inputs": [
        {
          "internalType": "address",
          "name": "contractAddress",
          "type": "address"
        },
        {
          "internalType": "uint256",
          "name": "tokenId",
          "type": "uint256"
        },
        {
          "internalType": "address",
          "name": "renterAddress",
          "type": "address"
        },
        {
          "internalType": "uint64",
          "name": "expires",
          "type": "uint64"
        }
      ],
      "name": "rentNFT",
      "outputs": [],
      "stateMutability": "nonpayable",
      "type": "function"
    },
    {
      "inputs": [
        {
          "internalType": "address",
          "name": "contractAddress",
          "type": "address"
        },
        {
          "internalType": "uint256",
          "name": "tokenId",
          "type": "uint256"
        },
        {
          "internalType": "address",
          "name": "ownerAddress",
          "type": "address"
        }
      ],
      "name": "returnNFT",
      "outputs": [],
      "stateMutability": "nonpayable",
      "type": "function"
    },
    {
      "inputs": [
        {
          "internalType": "address",
          "name": "newOwner",
          "type": "address"
        }
      ],
      "name": "transferOwnership",
      "outputs": [],
      "stateMutability": "nonpayable",
      "type": "function"
    },
    {
      "stateMutability": "payable",
      "type": "receive"
    }
  ],
  "bytecode": "0x608060405234801561001057600080fd5b5061002d61002261003260201b60201c565b61003a60201b60201c565b6100fe565b600033905090565b60008060009054906101000a900473ffffffffffffffffffffffffffffffffffffffff169050816000806101000a81548173ffffffffffffffffffffffffffffffffffffffff021916908373ffffffffffffffffffffffffffffffffffffffff1602179055508173ffffffffffffffffffffffffffffffffffffffff168173ffffffffffffffffffffffffffffffffffffffff167f8be0079c531659141344cd1fd0a4f28419497f9722a3daafe3b4186f6b6457e060405160405180910390a35050565b610c3b8061010d6000396000f3fe6080604052600436106100735760003560e01c8063715018a61161004e578063715018a6146101a75780638da5cb5b146101be578063bfe23d42146101e9578063f2fde38b14610212576100c8565b8062a300b714610118578063150b7a02146101415780633959327c1461017e576100c8565b366100c8573373ffffffffffffffffffffffffffffffffffffffff167f4103257eaac983ca79a70d28f90dfc4fa16b619bb0c17ee7cab0d4034c279624346040516100be9190610628565b60405180910390a2005b3373ffffffffffffffffffffffffffffffffffffffff167f4103257eaac983ca79a70d28f90dfc4fa16b619bb0c17ee7cab0d4034c2796243460405161010e9190610628565b60405180910390a2005b34801561012457600080fd5b5061013f600480360381019061013a91906106d7565b61023b565b005b34801561014d57600080fd5b506101686004803603810190610163919061078f565b6102b7565b6040516101759190610852565b60405180910390f35b34801561018a57600080fd5b506101a560048036038101906101a091906108ab565b610335565b005b3480156101b357600080fd5b506101bc610388565b005b3480156101ca57600080fd5b506101d361039c565b6040516101e091906108fa565b60405180910390f35b3480156101f557600080fd5b50610210600480360381019061020b9190610955565b6103c5565b005b34801561021e57600080fd5b50610239600480360381019061023491906109bc565b610442565b005b6102436104c5565b8273ffffffffffffffffffffffffffffffffffffffff166342842e0e3083856040518463ffffffff1660e01b8152600401610280939291906109e9565b600060405180830381600087803b15801561029a57600080fd5b505af11580156102ae573d6000803e3d6000fd5b50505050505050565b60008473ffffffffffffffffffffffffffffffffffffffff168673ffffffffffffffffffffffffffffffffffffffff167fbd6d2e4db9a9987d52e4a03884bb80bcf5c4133b70e949febd7ff6a1709c62ed86868660405161031a93929190610a7e565b60405180910390a363150b7a0260e01b905095945050505050565b61033d6104c5565b8173ffffffffffffffffffffffffffffffffffffffff166108fc829081150290604051600060405180830381858888f19350505050158015610383573d6000803e3d6000fd5b505050565b6103906104c5565b61039a6000610543565b565b60008060009054906101000a900473ffffffffffffffffffffffffffffffffffffffff16905090565b6103cd6104c5565b8373ffffffffffffffffffffffffffffffffffffffff1663e030565e8484846040518463ffffffff1660e01b815260040161040a93929190610abf565b600060405180830381600087803b15801561042457600080fd5b505af1158015610438573d6000803e3d6000fd5b5050505050505050565b61044a6104c5565b600073ffffffffffffffffffffffffffffffffffffffff168173ffffffffffffffffffffffffffffffffffffffff16036104b9576040517f08c379a00000000000000000000000000000000000000000000000000000000081526004016104b090610b79565b60405180910390fd5b6104c281610543565b50565b6104cd610607565b73ffffffffffffffffffffffffffffffffffffffff166104eb61039c565b73ffffffffffffffffffffffffffffffffffffffff1614610541576040517f08c379a000000000000000000000000000000000000000000000000000000000815260040161053890610be5565b60405180910390fd5b565b60008060009054906101000a900473ffffffffffffffffffffffffffffffffffffffff169050816000806101000a81548173ffffffffffffffffffffffffffffffffffffffff021916908373ffffffffffffffffffffffffffffffffffffffff1602179055508173ffffffffffffffffffffffffffffffffffffffff168173ffffffffffffffffffffffffffffffffffffffff167f8be0079c531659141344cd1fd0a4f28419497f9722a3daafe3b4186f6b6457e060405160405180910390a35050565b600033905090565b6000819050919050565b6106228161060f565b82525050565b600060208201905061063d6000830184610619565b92915050565b600080fd5b600080fd5b600073ffffffffffffffffffffffffffffffffffffffff82169050919050565b60006106788261064d565b9050919050565b6106888161066d565b811461069357600080fd5b50565b6000813590506106a58161067f565b92915050565b6106b48161060f565b81146106bf57600080fd5b50565b6000813590506106d1816106ab565b92915050565b6000806000606084860312156106f0576106ef610643565b5b60006106fe86828701610696565b935050602061070f868287016106c2565b925050604061072086828701610696565b9150509250925092565b600080fd5b600080fd5b600080fd5b60008083601f84011261074f5761074e61072a565b5b8235905067ffffffffffffffff81111561076c5761076b61072f565b5b60208301915083600182028301111561078857610787610734565b5b9250929050565b6000806000806000608086880312156107ab576107aa610643565b5b60006107b988828901610696565b95505060206107ca88828901610696565b94505060406107db888289016106c2565b935050606086013567ffffffffffffffff8111156107fc576107fb610648565b5b61080888828901610739565b92509250509295509295909350565b60007fffffffff0000000000000000000000000000000000000000000000000000000082169050919050565b61084c81610817565b82525050565b60006020820190506108676000830184610843565b92915050565b60006108788261064d565b9050919050565b6108888161086d565b811461089357600080fd5b50565b6000813590506108a58161087f565b92915050565b600080604083850312156108c2576108c1610643565b5b60006108d085828601610896565b92505060206108e1858286016106c2565b9150509250929050565b6108f48161066d565b82525050565b600060208201905061090f60008301846108eb565b92915050565b600067ffffffffffffffff82169050919050565b61093281610915565b811461093d57600080fd5b50565b60008135905061094f81610929565b92915050565b6000806000806080858703121561096f5761096e610643565b5b600061097d87828801610696565b945050602061098e878288016106c2565b935050604061099f87828801610696565b92505060606109b087828801610940565b91505092959194509250565b6000602082840312156109d2576109d1610643565b5b60006109e084828501610696565b91505092915050565b60006060820190506109fe60008301866108eb565b610a0b60208301856108eb565b610a186040830184610619565b949350505050565b600082825260208201905092915050565b82818337600083830152505050565b6000601f19601f8301169050919050565b6000610a5d8385610a20565b9350610a6a838584610a31565b610a7383610a40565b840190509392505050565b6000604082019050610a936000830186610619565b8181036020830152610aa6818486610a51565b9050949350505050565b610ab981610915565b82525050565b6000606082019050610ad46000830186610619565b610ae160208301856108eb565b610aee6040830184610ab0565b949350505050565b600082825260208201905092915050565b7f4f776e61626c653a206e6577206f776e657220697320746865207a65726f206160008201527f6464726573730000000000000000000000000000000000000000000000000000602082015250565b6000610b63602683610af6565b9150610b6e82610b07565b604082019050919050565b60006020820190508181036000830152610b9281610b56565b9050919050565b7f4f776e61626c653a2063616c6c6572206973206e6f7420746865206f776e6572600082015250565b6000610bcf602083610af6565b9150610bda82610b99565b602082019050919050565b60006020820190508181036000830152610bfe81610bc2565b905091905056fea264697066735822122016081747abdbc317452a5d2ce1df68c4c6232d230f8c846cd853c547dbf8672c64736f6c63430008110033",
  "linkReferences": {},
  "deployedLinkReferences": {}
}