{
  "_format": "hh-sol-artifact-1",
  "contractName": "NFTer",
  "sourceName": "contracts/NFTer.sol",
  "abi": [
    {
      "anonymous": false,
      "inputs": [
        {
          "indexed": true,
          "internalType": "address",
          "name": "previousOwner",
          "type": "address"
        },
        {
          "indexed": true,
          "internalType": "address",
          "name": "newOwner",
          "type": "address"
        }
      ],
      "name": "OwnershipTransferred",
      "type": "event"
    },
    {
      "anonymous": false,
      "inputs": [
        {
          "indexed": true,
          "internalType": "address",
          "name": "operator",
          "type": "address"
        },
        {
          "indexed": true,
          "internalType": "address",
          "name": "from",
          "type": "address"
        },
        {
          "indexed": false,
          "internalType": "uint256",
          "name": "tokenId",
          "type": "uint256"
        }
      ],
      "name": "ReceivedERC721NFT",
      "type": "event"
    },
    {
      "anonymous": false,
      "inputs": [
        {
          "indexed": true,
          "internalType": "address",
          "name": "from",
          "type": "address"
        },
        {
          "indexed": false,
          "internalType": "uint256",
          "name": "amount",
          "type": "uint256"
        }
      ],
      "name": "ReceivedETH",
      "type": "event"
    },
    {
      "stateMutability": "payable",
      "type": "fallback"
    },
    {
      "inputs": [],
      "name": "getTime",
      "outputs": [
        {
          "internalType": "uint256",
          "name": "",
          "type": "uint256"
        }
      ],
      "stateMutability": "view",
      "type": "function"
    },
    {
      "inputs": [
        {
          "internalType": "address",
          "name": "operator",
          "type": "address"
        },
        {
          "internalType": "address",
          "name": "from",
          "type": "address"
        },
        {
          "internalType": "uint256",
          "name": "tokenId",
          "type": "uint256"
        },
        {
          "internalType": "bytes",
          "name": "data",
          "type": "bytes"
        }
      ],
      "name": "onERC721Received",
      "outputs": [
        {
          "internalType": "bytes4",
          "name": "",
          "type": "bytes4"
        }
      ],
      "stateMutability": "nonpayable",
      "type": "function"
    },
    {
      "inputs": [],
      "name": "owner",
      "outputs": [
        {
          "internalType": "address",
          "name": "",
          "type": "address"
        }
      ],
      "stateMutability": "view",
      "type": "function"
    },
    {
      "inputs": [
        {
          "internalType": "address payable",
          "name": "_to",
          "type": "address"
        },
        {
          "internalType": "uint256",
          "name": "_amount",
          "type": "uint256"
        }
      ],
      "name": "payOwner",
      "outputs": [],
      "stateMutability": "nonpayable",
      "type": "function"
    },
    {
      "inputs": [],
      "name": "renounceOwnership",
      "outputs": [],
      "stateMutability": "nonpayable",
      "type": "function"
    },
    {
      "inputs": [
        {
          "internalType": "address",
          "name": "contractAddress",
          "type": "address"
        },
        {
          "internalType": "uint256",
          "name": "tokenId",
          "type": "uint256"
        },
        {
          "internalType": "address",
          "name": "renterAddress",
          "type": "address"
        },
        {
          "internalType": "uint64",
          "name": "expires",
          "type": "uint64"
        }
      ],
      "name": "rentNFT",
      "outputs": [],
      "stateMutability": "nonpayable",
      "type": "function"
    },
    {
      "inputs": [
        {
          "internalType": "address",
          "name": "contractAddress",
          "type": "address"
        },
        {
          "internalType": "uint256",
          "name": "tokenId",
          "type": "uint256"
        },
        {
          "internalType": "address",
          "name": "ownerAddress",
          "type": "address"
        }
      ],
      "name": "returnNFT",
      "outputs": [],
      "stateMutability": "nonpayable",
      "type": "function"
    },
    {
      "inputs": [
        {
          "internalType": "address",
          "name": "newOwner",
          "type": "address"
        }
      ],
      "name": "transferOwnership",
      "outputs": [],
      "stateMutability": "nonpayable",
      "type": "function"
    },
    {
      "stateMutability": "payable",
      "type": "receive"
    }
  ],
  "bytecode": "0x608060405234801561001057600080fd5b5061002d61002261003260201b60201c565b61003a60201b60201c565b6100fe565b600033905090565b60008060009054906101000a900473ffffffffffffffffffffffffffffffffffffffff169050816000806101000a81548173ffffffffffffffffffffffffffffffffffffffff021916908373ffffffffffffffffffffffffffffffffffffffff1602179055508173ffffffffffffffffffffffffffffffffffffffff168173ffffffffffffffffffffffffffffffffffffffff167f8be0079c531659141344cd1fd0a4f28419497f9722a3daafe3b4186f6b6457e060405160405180910390a35050565b610be58061010d6000396000f3fe60806040526004361061007e5760003560e01c8063715018a61161004e578063715018a6146101dd5780638da5cb5b146101f4578063bfe23d421461021f578063f2fde38b14610248576100d3565b8062a300b714610123578063150b7a021461014c5780633959327c14610189578063557ed1ba146101b2576100d3565b366100d3573373ffffffffffffffffffffffffffffffffffffffff167f4103257eaac983ca79a70d28f90dfc4fa16b619bb0c17ee7cab0d4034c279624346040516100c99190610662565b60405180910390a2005b3373ffffffffffffffffffffffffffffffffffffffff167f4103257eaac983ca79a70d28f90dfc4fa16b619bb0c17ee7cab0d4034c279624346040516101199190610662565b60405180910390a2005b34801561012f57600080fd5b5061014a60048036038101906101459190610711565b610271565b005b34801561015857600080fd5b50610173600480360381019061016e91906107c9565b6102ed565b604051610180919061088c565b60405180910390f35b34801561019557600080fd5b506101b060048036038101906101ab91906108e5565b610367565b005b3480156101be57600080fd5b506101c76103ba565b6040516101d49190610662565b60405180910390f35b3480156101e957600080fd5b506101f26103c2565b005b34801561020057600080fd5b506102096103d6565b6040516102169190610934565b60405180910390f35b34801561022b57600080fd5b506102466004803603810190610241919061098f565b6103ff565b005b34801561025457600080fd5b5061026f600480360381019061026a91906109f6565b61047c565b005b6102796104ff565b8273ffffffffffffffffffffffffffffffffffffffff166342842e0e3083856040518463ffffffff1660e01b81526004016102b693929190610a23565b600060405180830381600087803b1580156102d057600080fd5b505af11580156102e4573d6000803e3d6000fd5b50505050505050565b60008473ffffffffffffffffffffffffffffffffffffffff168673ffffffffffffffffffffffffffffffffffffffff167ff8024d08779783fb538a7ee3cf3377959df6b2326dc134ecf782ece524c5a4568660405161034c9190610662565b60405180910390a363150b7a0260e01b905095945050505050565b61036f6104ff565b8173ffffffffffffffffffffffffffffffffffffffff166108fc829081150290604051600060405180830381858888f193505050501580156103b5573d6000803e3d6000fd5b505050565b600042905090565b6103ca6104ff565b6103d4600061057d565b565b60008060009054906101000a900473ffffffffffffffffffffffffffffffffffffffff16905090565b6104076104ff565b8373ffffffffffffffffffffffffffffffffffffffff1663e030565e8484846040518463ffffffff1660e01b815260040161044493929190610a69565b600060405180830381600087803b15801561045e57600080fd5b505af1158015610472573d6000803e3d6000fd5b5050505050505050565b6104846104ff565b600073ffffffffffffffffffffffffffffffffffffffff168173ffffffffffffffffffffffffffffffffffffffff16036104f3576040517f08c379a00000000000000000000000000000000000000000000000000000000081526004016104ea90610b23565b60405180910390fd5b6104fc8161057d565b50565b610507610641565b73ffffffffffffffffffffffffffffffffffffffff166105256103d6565b73ffffffffffffffffffffffffffffffffffffffff161461057b576040517f08c379a000000000000000000000000000000000000000000000000000000000815260040161057290610b8f565b60405180910390fd5b565b60008060009054906101000a900473ffffffffffffffffffffffffffffffffffffffff169050816000806101000a81548173ffffffffffffffffffffffffffffffffffffffff021916908373ffffffffffffffffffffffffffffffffffffffff1602179055508173ffffffffffffffffffffffffffffffffffffffff168173ffffffffffffffffffffffffffffffffffffffff167f8be0079c531659141344cd1fd0a4f28419497f9722a3daafe3b4186f6b6457e060405160405180910390a35050565b600033905090565b6000819050919050565b61065c81610649565b82525050565b60006020820190506106776000830184610653565b92915050565b600080fd5b600080fd5b600073ffffffffffffffffffffffffffffffffffffffff82169050919050565b60006106b282610687565b9050919050565b6106c2816106a7565b81146106cd57600080fd5b50565b6000813590506106df816106b9565b92915050565b6106ee81610649565b81146106f957600080fd5b50565b60008135905061070b816106e5565b92915050565b60008060006060848603121561072a5761072961067d565b5b6000610738868287016106d0565b9350506020610749868287016106fc565b925050604061075a868287016106d0565b9150509250925092565b600080fd5b600080fd5b600080fd5b60008083601f84011261078957610788610764565b5b8235905067ffffffffffffffff8111156107a6576107a5610769565b5b6020830191508360018202830111156107c2576107c161076e565b5b9250929050565b6000806000806000608086880312156107e5576107e461067d565b5b60006107f3888289016106d0565b9550506020610804888289016106d0565b9450506040610815888289016106fc565b935050606086013567ffffffffffffffff81111561083657610835610682565b5b61084288828901610773565b92509250509295509295909350565b60007fffffffff0000000000000000000000000000000000000000000000000000000082169050919050565b61088681610851565b82525050565b60006020820190506108a1600083018461087d565b92915050565b60006108b282610687565b9050919050565b6108c2816108a7565b81146108cd57600080fd5b50565b6000813590506108df816108b9565b92915050565b600080604083850312156108fc576108fb61067d565b5b600061090a858286016108d0565b925050602061091b858286016106fc565b9150509250929050565b61092e816106a7565b82525050565b60006020820190506109496000830184610925565b92915050565b600067ffffffffffffffff82169050919050565b61096c8161094f565b811461097757600080fd5b50565b60008135905061098981610963565b92915050565b600080600080608085870312156109a9576109a861067d565b5b60006109b7878288016106d0565b94505060206109c8878288016106fc565b93505060406109d9878288016106d0565b92505060606109ea8782880161097a565b91505092959194509250565b600060208284031215610a0c57610a0b61067d565b5b6000610a1a848285016106d0565b91505092915050565b6000606082019050610a386000830186610925565b610a456020830185610925565b610a526040830184610653565b949350505050565b610a638161094f565b82525050565b6000606082019050610a7e6000830186610653565b610a8b6020830185610925565b610a986040830184610a5a565b949350505050565b600082825260208201905092915050565b7f4f776e61626c653a206e6577206f776e657220697320746865207a65726f206160008201527f6464726573730000000000000000000000000000000000000000000000000000602082015250565b6000610b0d602683610aa0565b9150610b1882610ab1565b604082019050919050565b60006020820190508181036000830152610b3c81610b00565b9050919050565b7f4f776e61626c653a2063616c6c6572206973206e6f7420746865206f776e6572600082015250565b6000610b79602083610aa0565b9150610b8482610b43565b602082019050919050565b60006020820190508181036000830152610ba881610b6c565b905091905056fea2646970667358221220799d46ddfe838ec4d97f45d4c7fe2423bdf91f0055289aa24d51c59be25310e864736f6c63430008110033",
  "linkReferences": {},
  "deployedLinkReferences": {}
}