{
  "_format": "hh-sol-artifact-1",
  "contractName": "NFTer",
  "sourceName": "contracts/NFTer.sol",
  "abi": [
    {
      "anonymous": false,
      "inputs": [
        {
          "indexed": true,
          "internalType": "address",
          "name": "previousOwner",
          "type": "address"
        },
        {
          "indexed": true,
          "internalType": "address",
          "name": "newOwner",
          "type": "address"
        }
      ],
      "name": "OwnershipTransferred",
      "type": "event"
    },
    {
      "anonymous": false,
      "inputs": [
        {
          "indexed": true,
          "internalType": "address",
          "name": "operator",
          "type": "address"
        },
        {
          "indexed": true,
          "internalType": "address",
          "name": "from",
          "type": "address"
        },
        {
          "indexed": false,
          "internalType": "uint256",
          "name": "tokenId",
          "type": "uint256"
        },
        {
          "indexed": false,
          "internalType": "bytes",
          "name": "data",
          "type": "bytes"
        }
      ],
      "name": "ReceivedERC721NFT",
      "type": "event"
    },
    {
      "anonymous": false,
      "inputs": [
        {
          "indexed": true,
          "internalType": "address",
          "name": "from",
          "type": "address"
        },
        {
          "indexed": false,
          "internalType": "uint256",
          "name": "amount",
          "type": "uint256"
        },
        {
          "indexed": false,
          "internalType": "bytes",
          "name": "data",
          "type": "bytes"
        }
      ],
      "name": "ReceivedETH",
      "type": "event"
    },
    {
      "stateMutability": "payable",
      "type": "fallback"
    },
    {
      "inputs": [
        {
          "internalType": "address",
          "name": "operator",
          "type": "address"
        },
        {
          "internalType": "address",
          "name": "from",
          "type": "address"
        },
        {
          "internalType": "uint256",
          "name": "tokenId",
          "type": "uint256"
        },
        {
          "internalType": "bytes",
          "name": "data",
          "type": "bytes"
        }
      ],
      "name": "onERC721Received",
      "outputs": [
        {
          "internalType": "bytes4",
          "name": "",
          "type": "bytes4"
        }
      ],
      "stateMutability": "nonpayable",
      "type": "function"
    },
    {
      "inputs": [],
      "name": "owner",
      "outputs": [
        {
          "internalType": "address",
          "name": "",
          "type": "address"
        }
      ],
      "stateMutability": "view",
      "type": "function"
    },
    {
      "inputs": [
        {
          "internalType": "address payable",
          "name": "_to",
          "type": "address"
        },
        {
          "internalType": "uint256",
          "name": "_amount",
          "type": "uint256"
        }
      ],
      "name": "payOwner",
      "outputs": [],
      "stateMutability": "nonpayable",
      "type": "function"
    },
    {
      "inputs": [],
      "name": "renounceOwnership",
      "outputs": [],
      "stateMutability": "nonpayable",
      "type": "function"
    },
    {
      "inputs": [
        {
          "internalType": "address",
          "name": "contractAddress",
          "type": "address"
        },
        {
          "internalType": "uint256",
          "name": "tokenId",
          "type": "uint256"
        },
        {
          "internalType": "address",
          "name": "renterAddress",
          "type": "address"
        },
        {
          "internalType": "uint64",
          "name": "expires",
          "type": "uint64"
        }
      ],
      "name": "rentNFT",
      "outputs": [],
      "stateMutability": "nonpayable",
      "type": "function"
    },
    {
      "inputs": [
        {
          "internalType": "address",
          "name": "contractAddress",
          "type": "address"
        },
        {
          "internalType": "uint256",
          "name": "tokenId",
          "type": "uint256"
        },
        {
          "internalType": "address",
          "name": "ownerAddress",
          "type": "address"
        }
      ],
      "name": "returnNFT",
      "outputs": [],
      "stateMutability": "nonpayable",
      "type": "function"
    },
    {
      "inputs": [
        {
          "internalType": "address",
          "name": "newOwner",
          "type": "address"
        }
      ],
      "name": "transferOwnership",
      "outputs": [],
      "stateMutability": "nonpayable",
      "type": "function"
    },
    {
      "stateMutability": "payable",
      "type": "receive"
    }
  ],
  "bytecode": "0x608060405234801561001057600080fd5b5061002d61002261003260201b60201c565b61003a60201b60201c565b6100fe565b600033905090565b60008060009054906101000a900473ffffffffffffffffffffffffffffffffffffffff169050816000806101000a81548173ffffffffffffffffffffffffffffffffffffffff021916908373ffffffffffffffffffffffffffffffffffffffff1602179055508173ffffffffffffffffffffffffffffffffffffffff168173ffffffffffffffffffffffffffffffffffffffff167f8be0079c531659141344cd1fd0a4f28419497f9722a3daafe3b4186f6b6457e060405160405180910390a35050565b610bd78061010d6000396000f3fe6080604052600436106100735760003560e01c8063715018a61161004e578063715018a61461015e5780638da5cb5b14610175578063bfe23d42146101a0578063f2fde38b146101c95761007a565b8062a300b7146100cf578063150b7a02146100f85780633959327c146101355761007a565b3661007a57005b3373ffffffffffffffffffffffffffffffffffffffff167f7a869da203a6a8f2dce0ebf66162f71c6ce042a7727ce00f54eafcb8b683edfa346000366040516100c59392919061063d565b60405180910390a2005b3480156100db57600080fd5b506100f660048036038101906100f19190610703565b6101f2565b005b34801561010457600080fd5b5061011f600480360381019061011a91906107bb565b61026e565b60405161012c919061087e565b60405180910390f35b34801561014157600080fd5b5061015c600480360381019061015791906108d7565b6102ec565b005b34801561016a57600080fd5b5061017361033f565b005b34801561018157600080fd5b5061018a610353565b6040516101979190610926565b60405180910390f35b3480156101ac57600080fd5b506101c760048036038101906101c29190610981565b61037c565b005b3480156101d557600080fd5b506101f060048036038101906101eb91906109e8565b6103f9565b005b6101fa61047c565b8273ffffffffffffffffffffffffffffffffffffffff166342842e0e3083856040518463ffffffff1660e01b815260040161023793929190610a15565b600060405180830381600087803b15801561025157600080fd5b505af1158015610265573d6000803e3d6000fd5b50505050505050565b60008473ffffffffffffffffffffffffffffffffffffffff168673ffffffffffffffffffffffffffffffffffffffff167fbd6d2e4db9a9987d52e4a03884bb80bcf5c4133b70e949febd7ff6a1709c62ed8686866040516102d19392919061063d565b60405180910390a363150b7a0260e01b905095945050505050565b6102f461047c565b8173ffffffffffffffffffffffffffffffffffffffff166108fc829081150290604051600060405180830381858888f1935050505015801561033a573d6000803e3d6000fd5b505050565b61034761047c565b61035160006104fa565b565b60008060009054906101000a900473ffffffffffffffffffffffffffffffffffffffff16905090565b61038461047c565b8373ffffffffffffffffffffffffffffffffffffffff1663e030565e8484846040518463ffffffff1660e01b81526004016103c193929190610a5b565b600060405180830381600087803b1580156103db57600080fd5b505af11580156103ef573d6000803e3d6000fd5b5050505050505050565b61040161047c565b600073ffffffffffffffffffffffffffffffffffffffff168173ffffffffffffffffffffffffffffffffffffffff1603610470576040517f08c379a000000000000000000000000000000000000000000000000000000000815260040161046790610b15565b60405180910390fd5b610479816104fa565b50565b6104846105be565b73ffffffffffffffffffffffffffffffffffffffff166104a2610353565b73ffffffffffffffffffffffffffffffffffffffff16146104f8576040517f08c379a00000000000000000000000000000000000000000000000000000000081526004016104ef90610b81565b60405180910390fd5b565b60008060009054906101000a900473ffffffffffffffffffffffffffffffffffffffff169050816000806101000a81548173ffffffffffffffffffffffffffffffffffffffff021916908373ffffffffffffffffffffffffffffffffffffffff1602179055508173ffffffffffffffffffffffffffffffffffffffff168173ffffffffffffffffffffffffffffffffffffffff167f8be0079c531659141344cd1fd0a4f28419497f9722a3daafe3b4186f6b6457e060405160405180910390a35050565b600033905090565b6000819050919050565b6105d9816105c6565b82525050565b600082825260208201905092915050565b82818337600083830152505050565b6000601f19601f8301169050919050565b600061061c83856105df565b93506106298385846105f0565b610632836105ff565b840190509392505050565b600060408201905061065260008301866105d0565b8181036020830152610665818486610610565b9050949350505050565b600080fd5b600080fd5b600073ffffffffffffffffffffffffffffffffffffffff82169050919050565b60006106a482610679565b9050919050565b6106b481610699565b81146106bf57600080fd5b50565b6000813590506106d1816106ab565b92915050565b6106e0816105c6565b81146106eb57600080fd5b50565b6000813590506106fd816106d7565b92915050565b60008060006060848603121561071c5761071b61066f565b5b600061072a868287016106c2565b935050602061073b868287016106ee565b925050604061074c868287016106c2565b9150509250925092565b600080fd5b600080fd5b600080fd5b60008083601f84011261077b5761077a610756565b5b8235905067ffffffffffffffff8111156107985761079761075b565b5b6020830191508360018202830111156107b4576107b3610760565b5b9250929050565b6000806000806000608086880312156107d7576107d661066f565b5b60006107e5888289016106c2565b95505060206107f6888289016106c2565b9450506040610807888289016106ee565b935050606086013567ffffffffffffffff81111561082857610827610674565b5b61083488828901610765565b92509250509295509295909350565b60007fffffffff0000000000000000000000000000000000000000000000000000000082169050919050565b61087881610843565b82525050565b6000602082019050610893600083018461086f565b92915050565b60006108a482610679565b9050919050565b6108b481610899565b81146108bf57600080fd5b50565b6000813590506108d1816108ab565b92915050565b600080604083850312156108ee576108ed61066f565b5b60006108fc858286016108c2565b925050602061090d858286016106ee565b9150509250929050565b61092081610699565b82525050565b600060208201905061093b6000830184610917565b92915050565b600067ffffffffffffffff82169050919050565b61095e81610941565b811461096957600080fd5b50565b60008135905061097b81610955565b92915050565b6000806000806080858703121561099b5761099a61066f565b5b60006109a9878288016106c2565b94505060206109ba878288016106ee565b93505060406109cb878288016106c2565b92505060606109dc8782880161096c565b91505092959194509250565b6000602082840312156109fe576109fd61066f565b5b6000610a0c848285016106c2565b91505092915050565b6000606082019050610a2a6000830186610917565b610a376020830185610917565b610a4460408301846105d0565b949350505050565b610a5581610941565b82525050565b6000606082019050610a7060008301866105d0565b610a7d6020830185610917565b610a8a6040830184610a4c565b949350505050565b600082825260208201905092915050565b7f4f776e61626c653a206e6577206f776e657220697320746865207a65726f206160008201527f6464726573730000000000000000000000000000000000000000000000000000602082015250565b6000610aff602683610a92565b9150610b0a82610aa3565b604082019050919050565b60006020820190508181036000830152610b2e81610af2565b9050919050565b7f4f776e61626c653a2063616c6c6572206973206e6f7420746865206f776e6572600082015250565b6000610b6b602083610a92565b9150610b7682610b35565b602082019050919050565b60006020820190508181036000830152610b9a81610b5e565b905091905056fea26469706673582212203f65d578f307221fee5941c03becc897859c18f2be73c95cd1f81ec67309cd0064736f6c63430008110033",
  "linkReferences": {},
  "deployedLinkReferences": {}
}